{
"contractName": "AshyaRegistry",
"abi": [
{
"inputs": [],
"payable": false,
"stateMutability": "nonpayable",
"type": "constructor"
},
{
"constant": true,
"inputs": [],
"name": "getItemCount",
"outputs": [
{
"name": "count",
"type": "uint256"
}
],
"payable": false,
"stateMutability": "view",
"type": "function"
},
{
"constant": false,
"inputs": [
{
"name": "_name",
"type": "string"
},
{
"name": "_location",
"type": "string"
},
{
"name": "_url",
"type": "string"
}
],
"name": "addItem",
"outputs": [],
"payable": true,
"stateMutability": "payable",
"type": "function"
},
{
"constant": false,
"inputs": [
{
"name": "_itemAddress",
"type": "address"
}
],
"name": "removeItem",
"outputs": [],
"payable": false,
"stateMutability": "nonpayable",
"type": "function"
},
{
"constant": true,
"inputs": [
{
"name": "itemAddress",
"type": "address"
}
],
"name": "getItem",
"outputs": [
{
"name": "name",
"type": "string"
},
{
"name": "location",
"type": "string"
},
{
"name": "url",
"type": "string"
},
{
"name": "index",
"type": "uint256"
}
],
"payable": false,
"stateMutability": "view",
"type": "function"
},
{
"constant": true,
"inputs": [
{
"name": "index",
"type": "uint256"
}
],
"name": "getItemAtIndex",
"outputs": [
{
"name": "itemAddress",
"type": "address"
}
],
"payable": false,
"stateMutability": "view",
"type": "function"
}
],
"bytecode": "0x606060405266038d7ea4c68000600055341561001a57600080fd5b6000600281610029919061002f565b50610080565b81548183558181151161005657818360005260206000209182019101610055919061005b565b5b505050565b61007d91905b80821115610079576000816000905550600101610061565b5090565b90565b610f248061008f6000396000f30060606040526004361061006d576000357c0100000000000000000000000000000000000000000000000000000000900463ffffffff16806314d8c98114610072578063339ba34914610203578063399fa840146102db5780637749cf2314610314578063f215afe01461033d575b600080fd5b341561007d57600080fd5b6100a9600480803573ffffffffffffffffffffffffffffffffffffffff169060200190919050506103a0565b60405180806020018060200180602001858152602001848103845288818151815260200191508051906020019080838360005b838110156100f75780820151818401526020810190506100dc565b50505050905090810190601f1680156101245780820380516001836020036101000a031916815260200191505b50848103835287818151815260200191508051906020019080838360005b8381101561015d578082015181840152602081019050610142565b50505050905090810190601f16801561018a5780820380516001836020036101000a031916815260200191505b50848103825286818151815260200191508051906020019080838360005b838110156101c35780820151818401526020810190506101a8565b50505050905090810190601f1680156101f05780820380516001836020036101000a031916815260200191505b5097505050505050505060405180910390f35b6102d9600480803590602001908201803590602001908080601f0160208091040260200160405190810160405280939291908181526020018383808284378201915050505050509190803590602001908201803590602001908080601f0160208091040260200160405190810160405280939291908181526020018383808284378201915050505050509190803590602001908201803590602001908080601f016020809104026020016040519081016040528093929190818152602001838380828437820191505050505050919050506106a6565b005b34156102e657600080fd5b610312600480803573ffffffffffffffffffffffffffffffffffffffff16906020019091905050610c12565b005b341561031f57600080fd5b610327610d96565b6040518082815260200191505060405180910390f35b341561034857600080fd5b61035e6004808035906020019091905050610da3565b604051808273ffffffffffffffffffffffffffffffffffffffff1673ffffffffffffffffffffffffffffffffffffffff16815260200191505060405180910390f35b6103a8610de7565b6103b0610de7565b6103b8610de7565b6000600160008673ffffffffffffffffffffffffffffffffffffffff1673ffffffffffffffffffffffffffffffffffffffff168152602001908152602001600020600001600160008773ffffffffffffffffffffffffffffffffffffffff1673ffffffffffffffffffffffffffffffffffffffff168152602001908152602001600020600201600160008873ffffffffffffffffffffffffffffffffffffffff1673ffffffffffffffffffffffffffffffffffffffff168152602001908152602001600020600101600160008973ffffffffffffffffffffffffffffffffffffffff1673ffffffffffffffffffffffffffffffffffffffff16815260200190815260200160002060040154838054600181600116156101000203166002900480601f0160208091040260200160405190810160405280929190818152602001828054600181600116156101000203166002900480156105585780601f1061052d57610100808354040283529160200191610558565b820191906000526020600020905b81548152906001019060200180831161053b57829003601f168201915b50505050509350828054600181600116156101000203166002900480601f0160208091040260200160405190810160405280929190818152602001828054600181600116156101000203166002900480156105f45780601f106105c9576101008083540402835291602001916105f4565b820191906000526020600020905b8154815290600101906020018083116105d757829003601f168201915b50505050509250818054600181600116156101000203166002900480601f0160208091040260200160405190810160405280929190818152602001828054600181600116156101000203166002900480156106905780601f1061066557610100808354040283529160200191610690565b820191906000526020600020905b81548152906001019060200180831161067357829003601f168201915b5050505050915093509350935093509193509193565b60005434101515156106b757600080fd5b828282600080600060019250600091505b6106d0610d96565b821015610a4b576106e082610da3565b9050856040518082805190602001908083835b60208310151561071857805182526020820191506020810190506020830392506106f3565b6001836020036101000a038019825116818451168082178552505050505050905001915050604051809103902060001916600160008373ffffffffffffffffffffffffffffffffffffffff1673ffffffffffffffffffffffffffffffffffffffff16815260200190815260200160002060000160405180828054600181600116156101000203166002900480156107e65780601f106107c45761010080835404028352918201916107e6565b820191906000526020600020905b8154815290600101906020018083116107d2575b50509150506040518091039020600019161480156109165750836040518082805190602001908083835b6020831015156108355780518252602082019150602081019050602083039250610810565b6001836020036101000a038019825116818451168082178552505050505050905001915050604051809103902060001916600160008373ffffffffffffffffffffffffffffffffffffffff1673ffffffffffffffffffffffffffffffffffffffff16815260200190815260200160002060020160405180828054600181600116156101000203166002900480156109035780601f106108e1576101008083540402835291820191610903565b820191906000526020600020905b8154815290600101906020018083116108ef575b5050915050604051809103902060001916145b8015610a345750846040518082805190602001908083835b602083101515610953578051825260208201915060208101905060208303925061092e565b6001836020036101000a038019825116818451168082178552505050505050905001915050604051809103902060001916600160008373ffffffffffffffffffffffffffffffffffffffff1673ffffffffffffffffffffffffffffffffffffffff1681526020019081526020016000206001016040518082805460018160011615610100020316600290048015610a215780601f106109ff576101008083540402835291820191610a21565b820191906000526020600020905b815481529060010190602001808311610a0d575b5050915050604051809103902060001916145b15610a3e57600092505b81806001019250506106c8565b821515610a5757600080fd5b88600160003373ffffffffffffffffffffffffffffffffffffffff1673ffffffffffffffffffffffffffffffffffffffff1681526020019081526020016000206000019080519060200190610aad929190610dfb565b5087600160003373ffffffffffffffffffffffffffffffffffffffff1673ffffffffffffffffffffffffffffffffffffffff1681526020019081526020016000206002019080519060200190610b04929190610dfb565b5086600160003373ffffffffffffffffffffffffffffffffffffffff1673ffffffffffffffffffffffffffffffffffffffff1681526020019081526020016000206001019080519060200190610b5b929190610dfb565b50600160028054806001018281610b729190610e7b565b9160005260206000209001600033909190916101000a81548173ffffffffffffffffffffffffffffffffffffffff021916908373ffffffffffffffffffffffffffffffffffffffff16021790555003600160003373ffffffffffffffffffffffffffffffffffffffff1673ffffffffffffffffffffffffffffffffffffffff16815260200190815260200160002060040181905550505050505050505050565b600080828073ffffffffffffffffffffffffffffffffffffffff163373ffffffffffffffffffffffffffffffffffffffff16141515610c5057600080fd5b600160008573ffffffffffffffffffffffffffffffffffffffff1673ffffffffffffffffffffffffffffffffffffffff1681526020019081526020016000206004015492506002600160028054905003815481101515610cac57fe5b906000526020600020900160009054906101000a900473ffffffffffffffffffffffffffffffffffffffff16915081600284815481101515610cea57fe5b906000526020600020900160006101000a81548173ffffffffffffffffffffffffffffffffffffffff021916908373ffffffffffffffffffffffffffffffffffffffff16021790555082600160008473ffffffffffffffffffffffffffffffffffffffff1673ffffffffffffffffffffffffffffffffffffffff168152602001908152602001600020600401819055506002805480919060019003610d8f9190610ea7565b5050505050565b6000600280549050905090565b6000600282815481101515610db457fe5b906000526020600020900160009054906101000a900473ffffffffffffffffffffffffffffffffffffffff169050919050565b602060405190810160405280600081525090565b828054600181600116156101000203166002900490600052602060002090601f016020900481019282601f10610e3c57805160ff1916838001178555610e6a565b82800160010185558215610e6a579182015b82811115610e69578251825591602001919060010190610e4e565b5b509050610e779190610ed3565b5090565b815481835581811511610ea257818360005260206000209182019101610ea19190610ed3565b5b505050565b815481835581811511610ece57818360005260206000209182019101610ecd9190610ed3565b5b505050565b610ef591905b80821115610ef1576000816000905550600101610ed9565b5090565b905600a165627a7a72305820ec3aa44338d250ee40cb71f101fafcc567a46f0a9b29a4ddac8e0e8dfbe01fb80029",
"source": "pragma solidity ^0.4.19;\r\n\r\ncontract AshyaRegistry{\r\n\r\n    uint price = 0.0010 ether;\r\n    struct item{\r\n        string name;\r\n        string url;\r\n        string location;\r\n        address ownerAddress;\r\n        uint index;\r\n    }\r\n    mapping(address => item) itemList;\r\n    address[] itemIndex;\r\n\r\n    modifier CheckPrice()\r\n    {\r\n        require(msg.value >= price);\r\n        _;\r\n    }\r\n    modifier onlyBy(address _itemAddress)\r\n    {\r\n        require(msg.sender == _itemAddress);\r\n        _;\r\n    }\r\n   \r\n    // Only let it add if it has not yet been added. \r\n    modifier canAdd(string _name, string _url, string _location) \r\n    {\r\n        bool newItem = true;\r\n        for(uint i = 0; i < getItemCount(); i++){\r\n            address itemAddress = getItemAtIndex(i);\r\n            if ((keccak256(itemList[itemAddress].name) == keccak256(_name)) && (keccak256(itemList[itemAddress].location) == keccak256(_location)) && (keccak256(itemList[itemAddress].url) == keccak256(_url))) {\r\n                newItem = false;\r\n            }\r\n        }\r\n        require(newItem);\r\n        _;\r\n    }\r\n\r\n    function AshyaRegistry()public{\r\n        itemIndex.length = 0;\r\n        \r\n    }\r\n    \r\n    function getItemCount()public constant returns(uint count){\r\n        return itemIndex.length;\r\n    }\r\n\r\n    function addItem(string _name, string _location, string _url) public payable CheckPrice canAdd(_name,_location,_url){\r\n        itemList[msg.sender].name = _name;\r\n        itemList[msg.sender].location = _location;\r\n        itemList[msg.sender].url= _url;\r\n        itemList[msg.sender].index = itemIndex.push(msg.sender)-1;\r\n\r\n\r\n    }\r\n    function removeItem(address _itemAddress)public onlyBy(_itemAddress){\r\n        uint rowToDelete = itemList[_itemAddress].index;\r\n        address keyToMove = itemIndex[itemIndex.length-1];\r\n        itemIndex[rowToDelete] = keyToMove;\r\n        itemList[keyToMove].index = rowToDelete;\r\n        itemIndex.length--;\r\n    }\r\n    function getItem(address itemAddress)public constant returns(string name, string location, string url, uint index)\r\n    {\r\n        return(itemList[itemAddress].name,itemList[itemAddress].location,itemList[itemAddress].url,itemList[itemAddress].index);\r\n    }\r\n    function getItemAtIndex(uint index) public constant returns(address itemAddress) {\r\n        return itemIndex[index];\r\n        \r\n    }\r\n}\r\n",
"sourcePath": "C:\\CiscoBlockchain\\AshyaRegistry\\contracts\\ashyaRegistry.sol",
"compiler": {
"name": "solc",
"version": "0.4.19+commit.c4cbbb05.Emscripten.clang"
},
"schemaVersion": "1.0.1",
"updatedAt": "2018-05-09T12:36:47.392Z"
}